:100000000C946B000C947D000C947D000C947D008E
:100010000C947D000C947D000C947D000C947D006C
:100020000C947D000C947D000C947D000C947D005C
:100030000C947D000C947D000C947D000C947D004C
:100040000C947D000C947D000C947D000C94F900C0
:100050000C947D0007634236B79BD8A71A396856BF
:1000600018AEBAAB558C1D3CB7CC5763BD6DEDFDDA
:10007000753EF6177231BF000000803F0800000097
:10008000BE922449123EABAAAA2ABECDCCCC4C3E8D
:1000900000000080BEABAAAAAA3E00000000BF007C
:1000A0000000803F0000000000084178D3BB438778
:1000B000D1133D190E3CC3BD4282AD2B3E68EC828C
:1000C00076BED98FE1A93E4C80EFFFBE01C4FF7F11
:1000D0003F000000000011241FBECFE5D8E0DEBFC6
:1000E000CDBF20E0A0E6B0E001C01D92A436B2076B
:1000F000E1F70E947F000C94DA040C940000CF9387
:10010000DF9300D000D01F92CDB7DEB780E89AE130
:10011000A6E0B0E089839A83AB83BC831D82CE01C5
:1001200001960E949B006AEA8AE00E94F100809199
:1001300063008BBBFCCF8F929F92AF92BF92CF9206
:10014000DF92EF92FF92CF93DF93EC016C8170E02E
:1001500080E090E00E9438029B01AC0160E070E01A
:1001600080E890E40E94C6026B017C0128813981FD
:100170004A815B8160E072E18AE790E00E94B80406
:1001800060EF620F70E080E090E00E943A024B0165
:100190005C01A7019601C701B6010E942B019B01DA
:1001A000AC01C501B4010E9497010E94090260B927
:1001B00091B18C81892B81B986B7816086BF789493
:1001C00084E182B986B7846086BF82E3DF91CF91F4
:1001D000FF90EF90DF90CF90BF90AF909F908F9067
:1001E0000895809360006093610085EA86BF82E392
:1001F00008951F920F920FB60F9211248F9381B121
:10020000887F8093630080916200811109C0809192
:10021000600083B985E886BF82E08093620014C0E5
:10022000823049F48091610083B985E886BF84E01B
:100230008093620009C0843029F485E986BF10925A
:10024000620002C0109262008F910F900FBE0F905B
:100250001F9018955058BB27AA270E9442010C9462
:100260008C020E947E0238F00E94850220F039F450
:100270009F3F19F426F40C947B020EF4E095E7FB03
:100280000C947502E92F0E949D0258F3BA17620779
:1002900073078407950720F079F4A6F50C94BF0244
:1002A0000EF4E0950B2EBA2FA02D0B01B901900191
:1002B0000C01CA01A0011124FF27591B99F0593FD5
:1002C00050F4503E68F11A16F040A22F232F342F1D
:1002D0004427585FF3CF469537952795A795F0406B
:1002E0005395C9F77EF41F16BA0B620B730B840B80
:1002F000BAF09150A1F0FF0FBB1F661F771F881F38
:10030000C2F70EC0BA0F621F731F841F48F487958F
:1003100077956795B795F7959E3F08F0B0CF939581
:10032000880F08F09927EE0F9795879508950E94FA
:10033000AB010C948C020E94850258F00E947E0250
:1003400040F029F45F3F29F00C94750251110C9490
:10035000C0020C947B020E949D0268F39923B1F3C2
:10036000552391F3951B550BBB27AA2762177307DB
:10037000840738F09F5F5F4F220F331F441FAA1F6F
:10038000A9F335D00E2E3AF0E0E832D0915050402B
:10039000E695001CCAF72BD0FE2F29D0660F771FD9
:1003A000881FBB1F261737074807AB07B0E809F0BF
:1003B000BB0B802DBF01FF2793585F4F3AF09E3F44
:1003C000510578F00C9475020C94C0025F3FE4F381
:1003D000983ED4F3869577956795B795F7959F5F87
:1003E000C9F7880F911D9695879597F90895E1E0D3
:1003F000660F771F881FBB1F621773078407BA0732
:1004000020F0621B730B840BBA0BEE1F88F7E0958C
:1004100008950E94A50288F09F5798F0B92F992758
:10042000B751B0F0E1F0660F771F881F991F1AF0DF
:10043000BA95C9F714C0B13091F00E94BF02B1E083
:1004400008950C94BF02672F782F8827B85F39F082
:10045000B93FCCF3869577956795B395D9F73EF478
:1004600090958095709561957F4F8F4F9F4F089520
:10047000E89409C097FB3EF490958095709561953E
:100480007F4F8F4F9F4F9923A9F0F92F96E9BB27F4
:100490009395F695879577956795B795F111F8CF70
:1004A000FAF4BB0F11F460FF1BC06F5F7F4F8F4FDB
:1004B0009F4F16C0882311F096E911C0772321F0D1
:1004C0009EE8872F762F05C0662371F096E8862F69
:1004D00070E060E02AF09A95660F771F881FDAF7C0
:1004E000880F9695879597F9089597F99F6780E803
:1004F00070E060E008959FEF80EC089500240A9476
:100500001616170618060906089500240A941216EE
:100510001306140605060895092E0394000C11F421
:10052000882352F0BB0F40F4BF2B11F460FF04C0CE
:100530006F5F7F4F8F4F9F4F089557FD9058440F27
:10054000551F59F05F3F71F04795880F97FB991F32
:1005500061F09F3F79F087950895121613061406EF
:10056000551FF2CF4695F1DF08C01616170618067C
:10057000991FF1CF86957105610508940895E89457
:10058000BB2766277727CB0197F90895FA01EE0F6D
:10059000FF1F309621053105A1F16115710561F448
:1005A0008038BFE39B0749F168949038810561F07A
:1005B0008038BFEF9B0741F099234AF5FF3FE105E3
:1005C0003105210519F1E8940894E795D901AA238A
:1005D00029F4AB2FBE2FF85FD0F310C0FF5F70F48B
:1005E000A695E0F7F73950F019F0FF3A38F49F7705
:1005F0009F930DD00F9007FC9058089546F00C94EF
:100600007B0260E070E080E89FE308954FE79F770A
:100610005F934F933F932F930E94C1032F913F917C
:100620004F915F910E943D040C941E0329F416F033
:100630000C9475020C94BF020C947B020E94A502DC
:10064000A8F39638A0F707F80F92E8942BE33AEA5C
:1006500048EB5FE70E9453040F920F920F924DB741
:100660005EB70F920E940904E4E5F0E00E94500397
:100670004F915F91EF91FF91E595EE1FFF1F49F0BC
:10068000FE57E0684427EE0F441FFA95E1F74195C5
:10069000550B0E9483030F9007FE0C947703089577
:1006A000DF93CF931F930F93FF92EF92DF927B0123
:1006B0008C01689406C0DA2EEF010E945004FE01FE
:1006C000E894A5912591359145915591A6F3EF01B7
:1006D0000E944201FE019701A801DA9469F7DF90B8
:1006E000EF90FF900F911F91CF91DF9108959B01A3
:1006F000AC0160E070E080E89FE30C9497010C94FB
:1007000075020C94AA040E94A502D8F39923C9F398
:10071000940F511DA3F39150504094F059F0882349
:1007200032F0660F771F881F91505040C1F79E3FEF
:1007300051052CF7880F911D9695879597F9089587
:100740005F3FACF0983E9CF0BB2786957795679508
:10075000B79508F4B1609395C1F7BB0F58F711F442
:1007600060FFE8CF6F5F7F4F8F4F9F4FE3CF0C94B9
:10077000C00216F00C94AA040C947B0268940C94AA
:1007800075020E94A502A8F39923C1F3AEF3DF938B
:10079000CF931F930F93FF92C92FDD2788232AF051
:1007A0002197660F771F881FDAF720E030E040E8D6
:1007B0005FEB9FE3883920F0803E38F021968F77F9
:1007C0000E942B01ECE7F0E004C00E942B01E9EA53
:1007D000F0E00E9450038B01BE01EC01FB2E6F572D
:1007E00071097595771F880B990B0E943A0228E1D1
:1007F00032E741E35FE30E945004AF2D9801AE0160
:10080000FF900F911F91CF91DF910E9442010C94B4
:100810008C02FA01DC01AA0FBB1F9B01AC01BF5780
:1008200028F4222733274427507820C0B75190F46A
:10083000AB2F0024469537952795011CA395D2F33D
:10084000002071F0220F331F441FB395DAF30ED04E
:100850000C942A0161307105A0E88A07B94630F48A
:100860009B01AC016627772788279078309621F086
:10087000208331834283538308950E9450040C9453
:100880008C020E947E0238F00E94850220F095239F
:1008900011F00C9475020C947B0211240C94C0028C
:1008A0000E949D0270F3959FC1F3950F50E0551F74
:1008B000629FF001729FBB27F00DB11D639FAA27B5
:1008C000F00DB11DAA1F649F6627B00DA11D661F04
:1008D000829F2227B00DA11D621F739FB00DA11D25
:1008E000621F839FA00D611D221F749F3327A00DDF
:1008F000611D231F849F600D211D822F762F6A2F7B
:1009000011249F5750409AF0F1F088234AF0EE0FDF
:10091000FF1FBB1F661F771F881F91505040A9F70C
:100920009E3F510580F00C9475020C94C0025F3F0D
:10093000E4F3983ED4F3869577956795B795F79548
:10094000E7959F5FC1F7FE2B880F911D96958795C0
:1009500097F908959F3F31F0915020F4879577954E
:100960006795B795880F911D9695879597F9089586
:10097000A1E21A2EAA1BBB1BFD010DC0AA1FBB1FA3
:10098000EE1FFF1FA217B307E407F50720F0A21B15
:10099000B30BE40BF50B661F771F881F991F1A9482
:1009A00069F760957095809590959B01AC01BD01AC
:0809B000CF010895F894FFCF78
:00000001FF
